{
  "contractName": "JoideaCoin",
  "abi": [
    {
      "inputs": [],
      "stateMutability": "nonpayable",
      "type": "constructor"
    },
    {
      "anonymous": false,
      "inputs": [
        {
          "indexed": true,
          "internalType": "address",
          "name": "owner",
          "type": "address"
        },
        {
          "indexed": true,
          "internalType": "address",
          "name": "spender",
          "type": "address"
        },
        {
          "indexed": false,
          "internalType": "uint256",
          "name": "value",
          "type": "uint256"
        }
      ],
      "name": "Approval",
      "type": "event"
    },
    {
      "anonymous": false,
      "inputs": [
        {
          "indexed": true,
          "internalType": "address",
          "name": "from",
          "type": "address"
        },
        {
          "indexed": true,
          "internalType": "address",
          "name": "to",
          "type": "address"
        },
        {
          "indexed": false,
          "internalType": "uint256",
          "name": "value",
          "type": "uint256"
        }
      ],
      "name": "Transfer",
      "type": "event"
    },
    {
      "anonymous": false,
      "inputs": [
        {
          "indexed": false,
          "internalType": "address",
          "name": "reader",
          "type": "address"
        }
      ],
      "name": "eventFired",
      "type": "event"
    },
    {
      "anonymous": false,
      "inputs": [
        {
          "indexed": false,
          "internalType": "uint256",
          "name": "senderBalance",
          "type": "uint256"
        },
        {
          "indexed": false,
          "internalType": "uint256",
          "name": "recipientBalance",
          "type": "uint256"
        }
      ],
      "name": "revealBalances",
      "type": "event"
    },
    {
      "anonymous": false,
      "inputs": [
        {
          "indexed": false,
          "internalType": "address",
          "name": "caller",
          "type": "address"
        },
        {
          "indexed": false,
          "internalType": "address",
          "name": "origin",
          "type": "address"
        }
      ],
      "name": "secondEvent",
      "type": "event"
    },
    {
      "anonymous": false,
      "inputs": [
        {
          "indexed": false,
          "internalType": "address",
          "name": "client",
          "type": "address"
        },
        {
          "indexed": false,
          "internalType": "uint256",
          "name": "amount",
          "type": "uint256"
        }
      ],
      "name": "tokenTransferredBackToAdmin",
      "type": "event"
    },
    {
      "anonymous": false,
      "inputs": [
        {
          "indexed": false,
          "internalType": "address",
          "name": "client",
          "type": "address"
        },
        {
          "indexed": false,
          "internalType": "uint256",
          "name": "amount",
          "type": "uint256"
        }
      ],
      "name": "tokenTransferredToClient",
      "type": "event"
    },
    {
      "inputs": [],
      "name": "admin",
      "outputs": [
        {
          "internalType": "address",
          "name": "",
          "type": "address"
        }
      ],
      "stateMutability": "view",
      "type": "function",
      "constant": true
    },
    {
      "inputs": [
        {
          "internalType": "address",
          "name": "owner",
          "type": "address"
        },
        {
          "internalType": "address",
          "name": "spender",
          "type": "address"
        }
      ],
      "name": "allowance",
      "outputs": [
        {
          "internalType": "uint256",
          "name": "",
          "type": "uint256"
        }
      ],
      "stateMutability": "view",
      "type": "function",
      "constant": true
    },
    {
      "inputs": [
        {
          "internalType": "address",
          "name": "spender",
          "type": "address"
        },
        {
          "internalType": "uint256",
          "name": "amount",
          "type": "uint256"
        }
      ],
      "name": "approve",
      "outputs": [
        {
          "internalType": "bool",
          "name": "",
          "type": "bool"
        }
      ],
      "stateMutability": "nonpayable",
      "type": "function"
    },
    {
      "inputs": [
        {
          "internalType": "address",
          "name": "account",
          "type": "address"
        }
      ],
      "name": "balanceOf",
      "outputs": [
        {
          "internalType": "uint256",
          "name": "",
          "type": "uint256"
        }
      ],
      "stateMutability": "view",
      "type": "function",
      "constant": true
    },
    {
      "inputs": [],
      "name": "cap",
      "outputs": [
        {
          "internalType": "uint256",
          "name": "",
          "type": "uint256"
        }
      ],
      "stateMutability": "view",
      "type": "function",
      "constant": true
    },
    {
      "inputs": [],
      "name": "decimals",
      "outputs": [
        {
          "internalType": "uint8",
          "name": "",
          "type": "uint8"
        }
      ],
      "stateMutability": "view",
      "type": "function",
      "constant": true
    },
    {
      "inputs": [
        {
          "internalType": "address",
          "name": "spender",
          "type": "address"
        },
        {
          "internalType": "uint256",
          "name": "subtractedValue",
          "type": "uint256"
        }
      ],
      "name": "decreaseAllowance",
      "outputs": [
        {
          "internalType": "bool",
          "name": "",
          "type": "bool"
        }
      ],
      "stateMutability": "nonpayable",
      "type": "function"
    },
    {
      "inputs": [
        {
          "internalType": "address",
          "name": "spender",
          "type": "address"
        },
        {
          "internalType": "uint256",
          "name": "addedValue",
          "type": "uint256"
        }
      ],
      "name": "increaseAllowance",
      "outputs": [
        {
          "internalType": "bool",
          "name": "",
          "type": "bool"
        }
      ],
      "stateMutability": "nonpayable",
      "type": "function"
    },
    {
      "inputs": [],
      "name": "name",
      "outputs": [
        {
          "internalType": "string",
          "name": "",
          "type": "string"
        }
      ],
      "stateMutability": "view",
      "type": "function",
      "constant": true
    },
    {
      "inputs": [],
      "name": "symbol",
      "outputs": [
        {
          "internalType": "string",
          "name": "",
          "type": "string"
        }
      ],
      "stateMutability": "view",
      "type": "function",
      "constant": true
    },
    {
      "inputs": [],
      "name": "totalSupply",
      "outputs": [
        {
          "internalType": "uint256",
          "name": "",
          "type": "uint256"
        }
      ],
      "stateMutability": "view",
      "type": "function",
      "constant": true
    },
    {
      "inputs": [
        {
          "internalType": "address",
          "name": "recipient",
          "type": "address"
        },
        {
          "internalType": "uint256",
          "name": "amount",
          "type": "uint256"
        }
      ],
      "name": "transfer",
      "outputs": [
        {
          "internalType": "bool",
          "name": "",
          "type": "bool"
        }
      ],
      "stateMutability": "nonpayable",
      "type": "function"
    },
    {
      "inputs": [
        {
          "internalType": "address",
          "name": "sender",
          "type": "address"
        },
        {
          "internalType": "address",
          "name": "recipient",
          "type": "address"
        },
        {
          "internalType": "uint256",
          "name": "amount",
          "type": "uint256"
        }
      ],
      "name": "transferFrom",
      "outputs": [
        {
          "internalType": "bool",
          "name": "",
          "type": "bool"
        }
      ],
      "stateMutability": "nonpayable",
      "type": "function"
    },
    {
      "inputs": [
        {
          "internalType": "address",
          "name": "to",
          "type": "address"
        },
        {
          "internalType": "uint256",
          "name": "amount",
          "type": "uint256"
        }
      ],
      "name": "mint",
      "outputs": [],
      "stateMutability": "nonpayable",
      "type": "function"
    },
    {
      "inputs": [
        {
          "internalType": "address",
          "name": "from",
          "type": "address"
        },
        {
          "internalType": "uint256",
          "name": "amount",
          "type": "uint256"
        }
      ],
      "name": "burn",
      "outputs": [],
      "stateMutability": "nonpayable",
      "type": "function"
    },
    {
      "inputs": [
        {
          "internalType": "uint256",
          "name": "amount",
          "type": "uint256"
        }
      ],
      "name": "sendTokenToClient",
      "outputs": [],
      "stateMutability": "nonpayable",
      "type": "function"
    },
    {
      "inputs": [
        {
          "internalType": "uint256",
          "name": "amount",
          "type": "uint256"
        }
      ],
      "name": "sendTokenFromClient",
      "outputs": [],
      "stateMutability": "nonpayable",
      "type": "function"
    },
    {
      "inputs": [],
      "name": "testEvent",
      "outputs": [],
      "stateMutability": "nonpayable",
      "type": "function"
    },
    {
      "inputs": [],
      "name": "getAdmin",
      "outputs": [
        {
          "internalType": "address",
          "name": "",
          "type": "address"
        }
      ],
      "stateMutability": "view",
      "type": "function",
      "constant": true
    },
    {
      "inputs": [
        {
          "internalType": "address",
          "name": "sender",
          "type": "address"
        },
        {
          "internalType": "address",
          "name": "recipient",
          "type": "address"
        }
      ],
      "name": "checkBalance",
      "outputs": [
        {
          "internalType": "uint256",
          "name": "",
          "type": "uint256"
        },
        {
          "internalType": "uint256",
          "name": "",
          "type": "uint256"
        }
      ],
      "stateMutability": "nonpayable",
      "type": "function"
    }
  ],
  "bytecode": "0x60806040523480156200001157600080fd5b506040518060400160405280600a81526020017f4a6f69646561436f696e000000000000000000000000000000000000000000008152506040518060400160405280600381526020017f4a44430000000000000000000000000000000000000000000000000000000000815250816003908051906020019062000096929190620002a1565b508060049080519060200190620000af929190620002a1565b50505033600560006101000a81548173ffffffffffffffffffffffffffffffffffffffff021916908373ffffffffffffffffffffffffffffffffffffffff160217905550614e20600681905550620001183369021e19e0c9bab24000006200011e60201b60201c565b620004fd565b600073ffffffffffffffffffffffffffffffffffffffff168273ffffffffffffffffffffffffffffffffffffffff16141562000191576040517f08c379a00000000000000000000000000000000000000000000000000000000081526004016200018890620003b2565b60405180910390fd5b620001a5600083836200029760201b60201c565b8060026000828254620001b991906200040d565b92505081905550806000808473ffffffffffffffffffffffffffffffffffffffff1673ffffffffffffffffffffffffffffffffffffffff16815260200190815260200160002060008282546200021091906200040d565b925050819055508173ffffffffffffffffffffffffffffffffffffffff16600073ffffffffffffffffffffffffffffffffffffffff167fddf252ad1be2c89b69c2b068fc378daa952ba7f163c4a11628f55a4df523b3ef836040516200027791906200047b565b60405180910390a362000293600083836200029c60201b60201c565b5050565b505050565b505050565b828054620002af90620004c7565b90600052602060002090601f016020900481019282620002d357600085556200031f565b82601f10620002ee57805160ff19168380011785556200031f565b828001600101855582156200031f579182015b828111156200031e57825182559160200191906001019062000301565b5b5090506200032e919062000332565b5090565b5b808211156200034d57600081600090555060010162000333565b5090565b600082825260208201905092915050565b7f45524332303a206d696e7420746f20746865207a65726f206164647265737300600082015250565b60006200039a601f8362000351565b9150620003a78262000362565b602082019050919050565b60006020820190508181036000830152620003cd816200038b565b9050919050565b6000819050919050565b7f4e487b7100000000000000000000000000000000000000000000000000000000600052601160045260246000fd5b60006200041a82620003d4565b91506200042783620003d4565b9250827fffffffffffffffffffffffffffffffffffffffffffffffffffffffffffffffff038211156200045f576200045e620003de565b5b828201905092915050565b6200047581620003d4565b82525050565b60006020820190506200049260008301846200046a565b92915050565b7f4e487b7100000000000000000000000000000000000000000000000000000000600052602260045260246000fd5b60006002820490506001821680620004e057607f821691505b60208210811415620004f757620004f662000498565b5b50919050565b6123fa806200050d6000396000f3fe608060405234801561001057600080fd5b506004361061012c5760003560e01c80636e9960c3116100ad578063a457c2d711610071578063a457c2d714610334578063a9059cbb14610364578063cd4010ea14610394578063dd62ed3e146103b0578063f851a440146103e05761012c565b80636e9960c31461027b57806370a082311461029957806377b76ec3146102c957806395d89b41146102fa5780639dc29fac146103185761012c565b8063313ce567116100f4578063313ce567146101e9578063355274ea14610207578063395093511461022557806340c10f19146102555780634f9d719e146102715761012c565b806306fdde0314610131578063095ea7b31461014f57806318160ddd1461017f5780631c3b573b1461019d57806323b872dd146101b9575b600080fd5b6101396103fe565b60405161014691906117e0565b60405180910390f35b6101696004803603810190610164919061189b565b610490565b60405161017691906118f6565b60405180910390f35b6101876104ae565b6040516101949190611920565b60405180910390f35b6101b760048036038101906101b2919061193b565b6104b8565b005b6101d360048036038101906101ce9190611968565b610690565b6040516101e091906118f6565b60405180910390f35b6101f1610788565b6040516101fe91906119d7565b60405180910390f35b61020f610791565b60405161021c9190611920565b60405180910390f35b61023f600480360381019061023a919061189b565b610797565b60405161024c91906118f6565b60405180910390f35b61026f600480360381019061026a919061189b565b610843565b005b6102796108e1565b005b610283610922565b6040516102909190611a01565b60405180910390f35b6102b360048036038101906102ae9190611a1c565b61094c565b6040516102c09190611920565b60405180910390f35b6102e360048036038101906102de9190611a49565b610994565b6040516102f1929190611a89565b60405180910390f35b610302610adb565b60405161030f91906117e0565b60405180910390f35b610332600480360381019061032d919061189b565b610b6d565b005b61034e6004803603810190610349919061189b565b610c0b565b60405161035b91906118f6565b60405180910390f35b61037e6004803603810190610379919061189b565b610cf6565b60405161038b91906118f6565b60405180910390f35b6103ae60048036038101906103a9919061193b565b610d14565b005b6103ca60048036038101906103c59190611a49565b610eca565b6040516103d79190611920565b60405180910390f35b6103e8610f51565b6040516103f59190611a01565b60405180910390f35b60606003805461040d90611ae1565b80601f016020809104026020016040519081016040528092919081815260200182805461043990611ae1565b80156104865780601f1061045b57610100808354040283529160200191610486565b820191906000526020600020905b81548152906001019060200180831161046957829003601f168201915b5050505050905090565b60006104a461049d610f77565b8484610f7f565b6001905092915050565b6000600254905090565b600560009054906101000a900473ffffffffffffffffffffffffffffffffffffffff1673ffffffffffffffffffffffffffffffffffffffff163373ffffffffffffffffffffffffffffffffffffffff161415610549576040517f08c379a000000000000000000000000000000000000000000000000000000000815260040161054090611b85565b60405180910390fd5b803073ffffffffffffffffffffffffffffffffffffffff166370a08231600560009054906101000a900473ffffffffffffffffffffffffffffffffffffffff166040518263ffffffff1660e01b81526004016105a59190611a01565b602060405180830381865afa1580156105c2573d6000803e3d6000fd5b505050506040513d601f19601f820116820180604052508101906105e69190611bba565b1015610627576040517f08c379a000000000000000000000000000000000000000000000000000000000815260040161061e90611c33565b60405180910390fd5b610654600560009054906101000a900473ffffffffffffffffffffffffffffffffffffffff16338361114a565b7fc2a7b534d099a4088b0fb766c29b6ee699b5c7bd49feb6ea5c3ed3d297b1ebe53382604051610685929190611c53565b60405180910390a150565b600061069d84848461114a565b6000600160008673ffffffffffffffffffffffffffffffffffffffff1673ffffffffffffffffffffffffffffffffffffffff16815260200190815260200160002060006106e8610f77565b73ffffffffffffffffffffffffffffffffffffffff1673ffffffffffffffffffffffffffffffffffffffff16815260200190815260200160002054905082811015610768576040517f08c379a000000000000000000000000000000000000000000000000000000000815260040161075f90611cee565b60405180910390fd5b61077c85610774610f77565b858403610f7f565b60019150509392505050565b60006012905090565b60065481565b60006108396107a4610f77565b8484600160006107b2610f77565b73ffffffffffffffffffffffffffffffffffffffff1673ffffffffffffffffffffffffffffffffffffffff16815260200190815260200160002060008873ffffffffffffffffffffffffffffffffffffffff1673ffffffffffffffffffffffffffffffffffffffff168152602001908152602001600020546108349190611d3d565b610f7f565b6001905092915050565b600560009054906101000a900473ffffffffffffffffffffffffffffffffffffffff1673ffffffffffffffffffffffffffffffffffffffff163373ffffffffffffffffffffffffffffffffffffffff16146108d3576040517f08c379a00000000000000000000000000000000000000000000000000000000081526004016108ca90611ddf565b60405180910390fd5b6108dd82826113cb565b5050565b7f69e18b2faa7b64016288b870a8a7f50529343285e60982727aeda6ef148a8c9a336040516109109190611a01565b60405180910390a161092061152b565b565b6000600560009054906101000a900473ffffffffffffffffffffffffffffffffffffffff16905090565b60008060008373ffffffffffffffffffffffffffffffffffffffff1673ffffffffffffffffffffffffffffffffffffffff168152602001908152602001600020549050919050565b60008060003073ffffffffffffffffffffffffffffffffffffffff166370a08231866040518263ffffffff1660e01b81526004016109d29190611a01565b602060405180830381865afa1580156109ef573d6000803e3d6000fd5b505050506040513d601f19601f82011682018060405250810190610a139190611bba565b905060003073ffffffffffffffffffffffffffffffffffffffff166370a08231866040518263ffffffff1660e01b8152600401610a509190611a01565b602060405180830381865afa158015610a6d573d6000803e3d6000fd5b505050506040513d601f19601f82011682018060405250810190610a919190611bba565b90507f67f4cb3661a8fa29cfcdcb562caa7aa73bb8d8d6fdd882698b55ff2f49cfb86b8282604051610ac4929190611a89565b60405180910390a181819350935050509250929050565b606060048054610aea90611ae1565b80601f0160208091040260200160405190810160405280929190818152602001828054610b1690611ae1565b8015610b635780601f10610b3857610100808354040283529160200191610b63565b820191906000526020600020905b815481529060010190602001808311610b4657829003601f168201915b5050505050905090565b600560009054906101000a900473ffffffffffffffffffffffffffffffffffffffff1673ffffffffffffffffffffffffffffffffffffffff163373ffffffffffffffffffffffffffffffffffffffff1614610bfd576040517f08c379a0000000000000000000000000000000000000000000000000000000008152600401610bf490611ddf565b60405180910390fd5b610c078282611566565b5050565b60008060016000610c1a610f77565b73ffffffffffffffffffffffffffffffffffffffff1673ffffffffffffffffffffffffffffffffffffffff16815260200190815260200160002060008573ffffffffffffffffffffffffffffffffffffffff1673ffffffffffffffffffffffffffffffffffffffff16815260200190815260200160002054905082811015610cd7576040517f08c379a0000000000000000000000000000000000000000000000000000000008152600401610cce90611e71565b60405180910390fd5b610ceb610ce2610f77565b85858403610f7f565b600191505092915050565b6000610d0a610d03610f77565b848461114a565b6001905092915050565b600560009054906101000a900473ffffffffffffffffffffffffffffffffffffffff1673ffffffffffffffffffffffffffffffffffffffff163373ffffffffffffffffffffffffffffffffffffffff161415610da5576040517f08c379a0000000000000000000000000000000000000000000000000000000008152600401610d9c90611edd565b60405180910390fd5b803073ffffffffffffffffffffffffffffffffffffffff166370a08231336040518263ffffffff1660e01b8152600401610ddf9190611a01565b602060405180830381865afa158015610dfc573d6000803e3d6000fd5b505050506040513d601f19601f82011682018060405250810190610e209190611bba565b1015610e61576040517f08c379a0000000000000000000000000000000000000000000000000000000008152600401610e5890611c33565b60405180910390fd5b610e8e33600560009054906101000a900473ffffffffffffffffffffffffffffffffffffffff168361114a565b7ff375cb271687ee4567268da075c89664360615836ea153c3c435e24798ce2d033382604051610ebf929190611c53565b60405180910390a150565b6000600160008473ffffffffffffffffffffffffffffffffffffffff1673ffffffffffffffffffffffffffffffffffffffff16815260200190815260200160002060008373ffffffffffffffffffffffffffffffffffffffff1673ffffffffffffffffffffffffffffffffffffffff16815260200190815260200160002054905092915050565b600560009054906101000a900473ffffffffffffffffffffffffffffffffffffffff1681565b600033905090565b600073ffffffffffffffffffffffffffffffffffffffff168373ffffffffffffffffffffffffffffffffffffffff161415610fef576040517f08c379a0000000000000000000000000000000000000000000000000000000008152600401610fe690611f6f565b60405180910390fd5b600073ffffffffffffffffffffffffffffffffffffffff168273ffffffffffffffffffffffffffffffffffffffff16141561105f576040517f08c379a000000000000000000000000000000000000000000000000000000000815260040161105690612001565b60405180910390fd5b80600160008573ffffffffffffffffffffffffffffffffffffffff1673ffffffffffffffffffffffffffffffffffffffff16815260200190815260200160002060008473ffffffffffffffffffffffffffffffffffffffff1673ffffffffffffffffffffffffffffffffffffffff168152602001908152602001600020819055508173ffffffffffffffffffffffffffffffffffffffff168373ffffffffffffffffffffffffffffffffffffffff167f8c5be1e5ebec7d5bd14f71427d1e84f3dd0314c0f7b2291e5b200ac8c7c3b9258360405161113d9190611920565b60405180910390a3505050565b600073ffffffffffffffffffffffffffffffffffffffff168373ffffffffffffffffffffffffffffffffffffffff1614156111ba576040517f08c379a00000000000000000000000000000000000000000000000000000000081526004016111b190612093565b60405180910390fd5b600073ffffffffffffffffffffffffffffffffffffffff168273ffffffffffffffffffffffffffffffffffffffff16141561122a576040517f08c379a000000000000000000000000000000000000000000000000000000000815260040161122190612125565b60405180910390fd5b61123583838361173d565b60008060008573ffffffffffffffffffffffffffffffffffffffff1673ffffffffffffffffffffffffffffffffffffffff168152602001908152602001600020549050818110156112bb576040517f08c379a00000000000000000000000000000000000000000000000000000000081526004016112b2906121b7565b60405180910390fd5b8181036000808673ffffffffffffffffffffffffffffffffffffffff1673ffffffffffffffffffffffffffffffffffffffff16815260200190815260200160002081905550816000808573ffffffffffffffffffffffffffffffffffffffff1673ffffffffffffffffffffffffffffffffffffffff168152602001908152602001600020600082825461134e9190611d3d565b925050819055508273ffffffffffffffffffffffffffffffffffffffff168473ffffffffffffffffffffffffffffffffffffffff167fddf252ad1be2c89b69c2b068fc378daa952ba7f163c4a11628f55a4df523b3ef846040516113b29190611920565b60405180910390a36113c5848484611742565b50505050565b600073ffffffffffffffffffffffffffffffffffffffff168273ffffffffffffffffffffffffffffffffffffffff16141561143b576040517f08c379a000000000000000000000000000000000000000000000000000000000815260040161143290612223565b60405180910390fd5b6114476000838361173d565b80600260008282546114599190611d3d565b92505081905550806000808473ffffffffffffffffffffffffffffffffffffffff1673ffffffffffffffffffffffffffffffffffffffff16815260200190815260200160002060008282546114ae9190611d3d565b925050819055508173ffffffffffffffffffffffffffffffffffffffff16600073ffffffffffffffffffffffffffffffffffffffff167fddf252ad1be2c89b69c2b068fc378daa952ba7f163c4a11628f55a4df523b3ef836040516115139190611920565b60405180910390a361152760008383611742565b5050565b7fbbd20be80467fd63eafd9c9a6e2020d8fb966f8564c6297213cbf3be6dc024cf333260405161155c929190612243565b60405180910390a1565b600073ffffffffffffffffffffffffffffffffffffffff168273ffffffffffffffffffffffffffffffffffffffff1614156115d6576040517f08c379a00000000000000000000000000000000000000000000000000000000081526004016115cd906122de565b60405180910390fd5b6115e28260008361173d565b60008060008473ffffffffffffffffffffffffffffffffffffffff1673ffffffffffffffffffffffffffffffffffffffff16815260200190815260200160002054905081811015611668576040517f08c379a000000000000000000000000000000000000000000000000000000000815260040161165f90612370565b60405180910390fd5b8181036000808573ffffffffffffffffffffffffffffffffffffffff1673ffffffffffffffffffffffffffffffffffffffff1681526020019081526020016000208190555081600260008282546116bf9190612390565b92505081905550600073ffffffffffffffffffffffffffffffffffffffff168373ffffffffffffffffffffffffffffffffffffffff167fddf252ad1be2c89b69c2b068fc378daa952ba7f163c4a11628f55a4df523b3ef846040516117249190611920565b60405180910390a361173883600084611742565b505050565b505050565b505050565b600081519050919050565b600082825260208201905092915050565b60005b83811015611781578082015181840152602081019050611766565b83811115611790576000848401525b50505050565b6000601f19601f8301169050919050565b60006117b282611747565b6117bc8185611752565b93506117cc818560208601611763565b6117d581611796565b840191505092915050565b600060208201905081810360008301526117fa81846117a7565b905092915050565b600080fd5b600073ffffffffffffffffffffffffffffffffffffffff82169050919050565b600061183282611807565b9050919050565b61184281611827565b811461184d57600080fd5b50565b60008135905061185f81611839565b92915050565b6000819050919050565b61187881611865565b811461188357600080fd5b50565b6000813590506118958161186f565b92915050565b600080604083850312156118b2576118b1611802565b5b60006118c085828601611850565b92505060206118d185828601611886565b9150509250929050565b60008115159050919050565b6118f0816118db565b82525050565b600060208201905061190b60008301846118e7565b92915050565b61191a81611865565b82525050565b60006020820190506119356000830184611911565b92915050565b60006020828403121561195157611950611802565b5b600061195f84828501611886565b91505092915050565b60008060006060848603121561198157611980611802565b5b600061198f86828701611850565b93505060206119a086828701611850565b92505060406119b186828701611886565b9150509250925092565b600060ff82169050919050565b6119d1816119bb565b82525050565b60006020820190506119ec60008301846119c8565b92915050565b6119fb81611827565b82525050565b6000602082019050611a1660008301846119f2565b92915050565b600060208284031215611a3257611a31611802565b5b6000611a4084828501611850565b91505092915050565b60008060408385031215611a6057611a5f611802565b5b6000611a6e85828601611850565b9250506020611a7f85828601611850565b9150509250929050565b6000604082019050611a9e6000830185611911565b611aab6020830184611911565b9392505050565b7f4e487b7100000000000000000000000000000000000000000000000000000000600052602260045260246000fd5b60006002820490506001821680611af957607f821691505b60208210811415611b0d57611b0c611ab2565b5b50919050565b7f61646d696e2073686f756c64206e6f742073656e6420746f20796f757273656c60008201527f6600000000000000000000000000000000000000000000000000000000000000602082015250565b6000611b6f602183611752565b9150611b7a82611b13565b604082019050919050565b60006020820190508181036000830152611b9e81611b62565b9050919050565b600081519050611bb48161186f565b92915050565b600060208284031215611bd057611bcf611802565b5b6000611bde84828501611ba5565b91505092915050565b7f6e6f7420656e6f75676820746f6b656e00000000000000000000000000000000600082015250565b6000611c1d601083611752565b9150611c2882611be7565b602082019050919050565b60006020820190508181036000830152611c4c81611c10565b9050919050565b6000604082019050611c6860008301856119f2565b611c756020830184611911565b9392505050565b7f45524332303a207472616e7366657220616d6f756e742065786365656473206160008201527f6c6c6f77616e6365000000000000000000000000000000000000000000000000602082015250565b6000611cd8602883611752565b9150611ce382611c7c565b604082019050919050565b60006020820190508181036000830152611d0781611ccb565b9050919050565b7f4e487b7100000000000000000000000000000000000000000000000000000000600052601160045260246000fd5b6000611d4882611865565b9150611d5383611865565b9250827fffffffffffffffffffffffffffffffffffffffffffffffffffffffffffffffff03821115611d8857611d87611d0e565b5b828201905092915050565b7f796f7520617265206e6f742061646d696e2c2064696521000000000000000000600082015250565b6000611dc9601783611752565b9150611dd482611d93565b602082019050919050565b60006020820190508181036000830152611df881611dbc565b9050919050565b7f45524332303a2064656372656173656420616c6c6f77616e63652062656c6f7760008201527f207a65726f000000000000000000000000000000000000000000000000000000602082015250565b6000611e5b602583611752565b9150611e6682611dff565b604082019050919050565b60006020820190508181036000830152611e8a81611e4e565b9050919050565b7f61646d696e2073686f756c64206e6f742073656e6420746f20697473656c6600600082015250565b6000611ec7601f83611752565b9150611ed282611e91565b602082019050919050565b60006020820190508181036000830152611ef681611eba565b9050919050565b7f45524332303a20617070726f76652066726f6d20746865207a65726f2061646460008201527f7265737300000000000000000000000000000000000000000000000000000000602082015250565b6000611f59602483611752565b9150611f6482611efd565b604082019050919050565b60006020820190508181036000830152611f8881611f4c565b9050919050565b7f45524332303a20617070726f766520746f20746865207a65726f20616464726560008201527f7373000000000000000000000000000000000000000000000000000000000000602082015250565b6000611feb602283611752565b9150611ff682611f8f565b604082019050919050565b6000602082019050818103600083015261201a81611fde565b9050919050565b7f45524332303a207472616e736665722066726f6d20746865207a65726f20616460008201527f6472657373000000000000000000000000000000000000000000000000000000602082015250565b600061207d602583611752565b915061208882612021565b604082019050919050565b600060208201905081810360008301526120ac81612070565b9050919050565b7f45524332303a207472616e7366657220746f20746865207a65726f206164647260008201527f6573730000000000000000000000000000000000000000000000000000000000602082015250565b600061210f602383611752565b915061211a826120b3565b604082019050919050565b6000602082019050818103600083015261213e81612102565b9050919050565b7f45524332303a207472616e7366657220616d6f756e742065786365656473206260008201527f616c616e63650000000000000000000000000000000000000000000000000000602082015250565b60006121a1602683611752565b91506121ac82612145565b604082019050919050565b600060208201905081810360008301526121d081612194565b9050919050565b7f45524332303a206d696e7420746f20746865207a65726f206164647265737300600082015250565b600061220d601f83611752565b9150612218826121d7565b602082019050919050565b6000602082019050818103600083015261223c81612200565b9050919050565b600060408201905061225860008301856119f2565b61226560208301846119f2565b9392505050565b7f45524332303a206275726e2066726f6d20746865207a65726f2061646472657360008201527f7300000000000000000000000000000000000000000000000000000000000000602082015250565b60006122c8602183611752565b91506122d38261226c565b604082019050919050565b600060208201905081810360008301526122f7816122bb565b9050919050565b7f45524332303a206275726e20616d6f756e7420657863656564732062616c616e60008201527f6365000000000000000000000000000000000000000000000000000000000000602082015250565b600061235a602283611752565b9150612365826122fe565b604082019050919050565b600060208201905081810360008301526123898161234d565b9050919050565b600061239b82611865565b91506123a683611865565b9250828210156123b9576123b8611d0e565b5b82820390509291505056fea26469706673582212200f924c5e069a25ad24feb35e7ce397bcdd89c66d7c1e078f282da5f0ff80745d64736f6c634300080a0033",
  "immutableReferences": {},
  "source": "// SPDX-License-Identifier: MIT\npragma solidity >=0.4.22 <0.9.0;\n\nimport \"@openzeppelin/contracts/token/ERC20/ERC20.sol\";\n\ncontract JoideaCoin is ERC20 {\n    address public admin;\n    uint256 public cap;\n\n    constructor() ERC20(\"JoideaCoin\", \"JDC\") {\n        admin = msg.sender;\n        cap = 20000;\n        _mint(msg.sender, 10000 * (10**18));\n    }\n\n    function mint(address to, uint256 amount) external {\n        require(msg.sender == admin, \"you are not admin, die!\");\n        _mint(to, amount);\n    }\n\n    function burn(address from, uint256 amount) external {\n        require(msg.sender == admin, \"you are not admin, die!\");\n        _burn(from, amount);\n    }\n\n    event tokenTransferredToClient(address client, uint256 amount);\n    event tokenTransferredBackToAdmin(address client, uint256 amount);\n   \n\n    function sendTokenToClient(uint256 amount) external {\n        require(msg.sender != admin, \"admin should not send to yourself\");\n        require(this.balanceOf(admin) >= amount, \"not enough token\");\n        _transfer(admin, msg.sender, amount);\n        emit tokenTransferredToClient(msg.sender, amount);\n    }\n\n    function sendTokenFromClient(uint256 amount) external {\n        require(msg.sender != admin, \"admin should not send to itself\");\n        require(this.balanceOf(msg.sender) >= amount, \"not enough token\");\n        _transfer(msg.sender, admin, amount);\n        emit tokenTransferredBackToAdmin(msg.sender, amount);\n    }\n\n\n\n    //for testing\n    event eventFired(address reader);\n    event secondEvent(address caller, address origin);\n    event revealBalances(uint256 senderBalance, uint256 recipientBalance);\n\n    function calledByContract() internal {\n        emit secondEvent(msg.sender, tx.origin);\n    }\n\n    function testEvent() external {\n        emit eventFired(msg.sender);\n        calledByContract();\n    }\n\n    function getAdmin() external view returns (address) {\n        return admin;\n    }\n\n    function checkBalance(address sender, address recipient)\n        external\n        returns (uint256, uint256)\n    {\n        uint256 senderBalance = this.balanceOf(sender);\n        uint256 recipientBalance = this.balanceOf(recipient);\n\n        emit revealBalances(senderBalance, recipientBalance);\n        return (senderBalance, recipientBalance);\n    }\n}\n",
  "sourcePath": "/home/kharsair/Documents/blockchain/token/contracts/JoideaCoin.sol",
  "compiler": {
    "name": "solc",
    "version": "0.8.10+commit.fc410830.Emscripten.clang"
  },
  "schemaVersion": "3.4.4",
  "updatedAt": "2022-02-04T13:45:02.692Z",
  "networkType": "ethereum",
  "devdoc": {
    "kind": "dev",
    "methods": {
      "allowance(address,address)": {
        "details": "See {IERC20-allowance}."
      },
      "approve(address,uint256)": {
        "details": "See {IERC20-approve}. Requirements: - `spender` cannot be the zero address."
      },
      "balanceOf(address)": {
        "details": "See {IERC20-balanceOf}."
      },
      "decimals()": {
        "details": "Returns the number of decimals used to get its user representation. For example, if `decimals` equals `2`, a balance of `505` tokens should be displayed to a user as `5.05` (`505 / 10 ** 2`). Tokens usually opt for a value of 18, imitating the relationship between Ether and Wei. This is the value {ERC20} uses, unless this function is overridden; NOTE: This information is only used for _display_ purposes: it in no way affects any of the arithmetic of the contract, including {IERC20-balanceOf} and {IERC20-transfer}."
      },
      "decreaseAllowance(address,uint256)": {
        "details": "Atomically decreases the allowance granted to `spender` by the caller. This is an alternative to {approve} that can be used as a mitigation for problems described in {IERC20-approve}. Emits an {Approval} event indicating the updated allowance. Requirements: - `spender` cannot be the zero address. - `spender` must have allowance for the caller of at least `subtractedValue`."
      },
      "increaseAllowance(address,uint256)": {
        "details": "Atomically increases the allowance granted to `spender` by the caller. This is an alternative to {approve} that can be used as a mitigation for problems described in {IERC20-approve}. Emits an {Approval} event indicating the updated allowance. Requirements: - `spender` cannot be the zero address."
      },
      "name()": {
        "details": "Returns the name of the token."
      },
      "symbol()": {
        "details": "Returns the symbol of the token, usually a shorter version of the name."
      },
      "totalSupply()": {
        "details": "See {IERC20-totalSupply}."
      },
      "transfer(address,uint256)": {
        "details": "See {IERC20-transfer}. Requirements: - `recipient` cannot be the zero address. - the caller must have a balance of at least `amount`."
      },
      "transferFrom(address,address,uint256)": {
        "details": "See {IERC20-transferFrom}. Emits an {Approval} event indicating the updated allowance. This is not required by the EIP. See the note at the beginning of {ERC20}. Requirements: - `sender` and `recipient` cannot be the zero address. - `sender` must have a balance of at least `amount`. - the caller must have allowance for ``sender``'s tokens of at least `amount`."
      }
    },
    "version": 1
  },
  "userdoc": {
    "kind": "user",
    "methods": {},
    "version": 1
  }
}